:020000021000EC
:1000000000C0FF24F8BE0091780005FD95C0F09275
:10001000A00608E10093B5060FEF0A950023E9F763
:100020000091A80600FFEAC0E0E0F0E00791169119
:100030000F3F19F41F3F09F4E1C07EC03091CF019A
:1000400037FDFCCF3BB72BBFF8012091CA0113E26B
:100050001093CA010A01E8952093CA013BBF089595
:100060003BB72BBFF8012091CA014093CA013DE97B
:1000700030933400E8952093CA013BBF089540E0D7
:1000800099BF4D9399B70150104020403040402F08
:10009000412B422B432B99F708953BBF07913BB768
:1000A00099BF0D9399B74150504060407040042F64
:1000B000052B062B072B89F7089500E4402E0FE04F
:1000C000502E01E0602EF201362D6BBE4791579104
:1000D00067917691F201EC5FFF4F3F4F3BBFA791D5
:1000E000B7919691F201362DE95FFF4F3F4F3BBF2D
:1000F000079117913691F801012B032B11F0CDDFF9
:1001000003C08A019B01BBDF0AE0400E00E0501EE5
:10011000601EA201662D44355F406140A0F2089543
:1001200001E70DBF00E20EBFC2E7DAE2E0E0EABF9E
:100130000E945D800E945181F092B50600910020DE
:10014000109101200A3A154511F00C940000F0922C
:100150000020F092012000E200937800F6CFBD016C
:10016000D801F90130E006C03BBF219139BF2D9382
:1001700041505040242F252BB9F7DB010895AA8464
:10018000998488847F806E805D804C80BB81AA8149
:1001900099818881F0E0EC0FFD1FEF010895AF9386
:1001A000BF93D8013BBF29BF01900D9241505040F1
:1001B0006040D1F7BF91AF910895AA929A928A9226
:1001C0007A926A925A924A92BA93AA939A938A938B
:1001D00008954091CA01E22FF32F0093CA010491C0
:1001E0004093CA01089540E04BBFF80158ED54BF59
:1001F000208308950C9462850C949A8591CF0FBF4B
:1002000008952FB7F8941095F0E0E02FE059FF4FD4
:100210002CD501230083022FF2CFBA01A801890156
:1002200007D060C361E06A93BA01A90101D06EC32F
:1002300020E030E00895B90198018B01E1C20E94ED
:10024000E0802801D9013A0190E007C099BF2D91C3
:100250008201E9D201E0400E591E83012FEF620EA8
:10026000721E012B99F7E8E00C94C28062E770E2FD
:10027000260F371F0C94AF8060E271E2620F731F8C
:10028000625E7F4F9B01F6CFF8940AEA15E5009372
:1002900000201093012020917900216009E737D0D8
:1002A000FFCF27E402EA33D005D07894A8D3E2D375
:1002B000FFCFA5CF24E001E42AD02DE12BD000937D
:1002C00062002CE127D0009363000FB7F894E0E5BB
:1002D000F0E0FBBF108112601083EBDF0091510052
:1002E00001FBE6F721E000E412D0E6E5F0E0FBBF19
:1002F0000081097F008300E807870BEB008B0081FA
:1003000004600083E0E6008101600083089510E04E
:100310000C94F38030E002E00C94E98000E000935C
:100320004E2158D00091900000933E210091910001
:1003300000933F210091920000934021009193008F
:10034000009341210091D00101FB16F001E001C0B2
:1003500000E0E9C082D10091202100760032C1F591
:100360001091212190E099BF0C9107FF13C012500A
:1003700041F01A9559F526E030E058968D01F0D1FC
:1003800023C01ED102A113A100301907F9F0F80112
:1003900009951FC01A9521F01350C1F41BD014C049
:1003A00000914E21002331F004E411E809D10487C3
:1003B00015870AC020E430E004E511E2D1D107EF4F
:1003C00011E8FED00687178701E003C00FE093D045
:1003D00000E043C200C072D100E030E00BBF008FEC
:1003E00002E0048F36873787348735870895F2DF38
:1003F00010E01093422110934321E4E5F1E230E054
:100400001BBF50814181403001E0500709F426C0F4
:10041000403003E0500709F445C04130500709F46B
:100420005CC0403004E0500769F4EFECF1E000817B
:1004300007FDFBCF40E200E020E00E94308042D286
:1004400000E071C04330500721F401E000934E21D9
:1004500008954330564009F454C0B0C100914F2173
:1004600010915021012309F080C019D04689578985
:100470004030504011F40ED002C02AD009F49EC181
:1004800020E038E0E7D06CD108E413E808D0068714
:1004900017874BC003E0008F0AE0048F0895E0E265
:1004A000F1E2E6C015D039F0FADF448955894030D1
:1004B000504011F4EFDF82C107A510A9012319F004
:1004C00005EB12E802C003EE12E802A313A32DC04D
:1004D00006E511E251D000230895FADF49F020919A
:1004E0003421309135212030304019F403E003D01D
:1004F00065C171D01AC0009338210AE000933C21F5
:10050000089500915621002369F40091572101318B
:1005100018F008E0F0DF52C10AD000E00093442157
:100520000093452102C000934F2101E0089503305C
:1005300041F0023031F0043021F0053011F011E0CB
:1005400001C010E01093502112E0019FF001E3562A
:10055000FF4D8ED00080F18100E311E220E0E02D1C
:1005600048E050E060E00C94CF8003E00093382135
:1005700002E000933C2122C174D0D80190E099BFE1
:100580001C911ED021819AD024A315A312965D91AF
:100590004C9160E070E00088118822883388401513
:1005A00051056205730520F008E075DF00E007C023
:1005B000421B510B4F5F5F4F46A357A301E04DC154
:1005C000FD019BBF08956BDF46A157A13CD067DFBB
:1005D00026A137A15AC041D046D0012B31F418EFE3
:1005E00036A317A380E098E00EC03DD0202F212B2A
:1005F00049F1183010F4C80102C080E098E0081BEF
:10060000190B06A317A3AC011ED024D008C0FD010E
:100610003BBF44A155A14F5F5F4F44A355A39C012D
:100620000197232B11F3F80123D021918F012F3F44
:1006300071F305E0009338210BE313E8FD013BBFA4
:1006400002A313A30AC124A135A104D00488F5890B
:10065000E02D099404E911E2089503D0A0E2B1E28B
:1006600008950C94E48003D006A117A10895FD011C
:1006700030E03BBF08952091442100914521009333
:1006800094212093952122E030E0E4DF12D24DCF77
:1006900006DF04A115A146A157A1202F2F73B90190
:1006A00024E931E2260F371F0688F789E02D0995E6
:1006B00000E004D00BBF0687078737CFE0E2F1E206
:1006C0000895009122210F770093C30408950091AB
:1006D0002221002319F0025039F005C024E030E057
:1006E00007E111E219C06AC000E030E012E0F0E07A
:1006F000E02FEC51FF4D3BBF42A1019FF001EC51B7
:10070000FF4D428333830395003188F302E2009367
:10071000E42022E204EE10E2B9CFC1DE03810A95A3
:1007200029F00A9591F00A95B9F019C02091D220CC
:1007300002ED10E215D0B3DED7D2428553850417FF
:10074000150710F402871387F0CE2091C220309154
:10075000C32000EC10E2EECFBADF002361F72EC019
:10076000A8C1209120212F7149F54091212197DEC8
:10077000208127FF11C0442329F0465039F0425010
:1007800031F01CC022E008E411E204C0C6CF21E031
:1007900001E511E2E5DFC9CE455019F0445031F0D2
:1007A0000DC041E653E844875587F5CF41E040A7A7
:1007B00031A7028101AB002371F3B0CD00E00895B1
:1007C0007DDF00E00BBF028703870487058706876C
:1007D0000787008107FF03C087D2012B81F00091BA
:1007E0002021007619F4BDDF002341F4009120217F
:1007F0000F71013021F4AEDD002309F096CEDECF7B
:10080000B801890138D03BBF208127FDFCCFECEC3B
:10081000208128602083705F9B012CDDECECF1E0EF
:1008200024D2077F72CD1DDFC801A22FB091CA016B
:1008300017D021D03BBF008107FDFCCF03E300931D
:10084000CA013093C2019093C1018093C001A0936B
:10085000C40105E313D0B093CA01E4E00C94C68050
:100860000AD03BBF008107FDFCCF008101FF02C021
:1008700006E304D00895EFECF1E0DBCC0093CA016D
:1008800021E00BEC11E044CD9A938A93802F909154
:10089000CA01E6DF30E09BD007FDFDCF03E3009304
:1008A000CA0100E03093C2013093C1010093C0013E
:1008B0008093C40103950032C8F39093CA018991D3
:1008C000999108958A930FEFDFDFD5DF3BBF008159
:1008D00007FDFCCF8091CA0100E3D0DF8093CA01FD
:1008E00089910895C8DF3BBF208127FDFCCF262FCB
:1008F000272B59F0F8012691FA0120834F5F5F4FB3
:100900000F5F1F4F61507040F2CF08950E94DD804D
:1009100022972A013B01D801912F80E08D8408C0E5
:10092000082E55D007FDFDCF45E2002D0E943080F6
:10093000062D072909F447C0AA2449D007FDFDCF99
:1009400000E8902E882069F0FC0192DE0791169154
:100950000883198308810F3F1F4F31F0AA24A39405
:1009600003C00FEF08830983062D0729B9F0A817E4
:10097000B90749F42FD079D1088301E0400E531E06
:10098000062D072959F0FC013196AE17BF0731F447
:1009900021D06BD1098301E0400E531E488159815B
:1009A0008C0146DC0E941E8002969A9459F6192FFB
:1009B0001A953EDCAA2009F0B3CF09D007FDFDCF80
:1009C00044E2082FB3CF2296ECE00C94BF80009154
:1009D000CF0108950FEF600E701E1196F201089579
:1009E0000ECC2AE107D00093FA042BE103D0009348
:1009F000FB0408958FDC0F3F09F40FE108958A93FB
:100A000000E00093600010E4FCDB23E004E47FDC02
:100A10002AD10064008301E0009360008FB7F8944E
:100A200000E028E0029FF001E056F64D318B03957F
:100A30000230C0F3D6DF0091C0040093C00413D18C
:100A400000680083008100610083E0EAF9E27096AB
:100A5000E093C604F093C704E0ECF4E00081006288
:100A600000830FEF0583E8EC008101600083082F0D
:100A7000B7DF36CF0FB7F89410E41093CA0410E232
:100A80001093CA04E1ECF4E0F3DD108111601083EF
:100A9000E9EC108112601083E8EC1081106410837F
:100AA000E9EC108111601083E8EC1081106810836C
:100AB00097CF009328211093292120932A21309346
:100AC0002B2108956ED0EBECF4E00BBF008107FF03
:100AD00002C000E82CC001D2002351F5EBECC4D0D9
:100AE00004FF1CC000E110D23093512101E010E05E
:100AF000009348211093492100E00093C30420E4AF
:100B000069D020E430E010E000E864D002EC19E2A3
:100B10000093B4291093B5292FD10AC0008106FF94
:100B200002C000E404C0008105FF02C000E2ECD175
:100B30001FD0189536D00091CC0401FD02C08FD192
:100B4000B1F402E00093CC040091C50428D0F80170
:100B50008CD005FF06C023D020E2F801269311D1E6
:100B600006C000E81DD020E2F8012693C0D0E0CFF7
:100B7000BBBFA9BF98BF8FBF099119912991399126
:100B800049915991699179910990199029903990D9
:100B9000E991F99189919991A991B991089500E00C
:100BA00034C0BA93AA939A938A93FA93EA933A92A7
:100BB0002A921A920A927A936A935A934A933A9390
:100BC0002A931A930A938FB798B7A9B7BBB700E0D7
:100BD00008BF08958A932051304041F020513040A1
:100BE00039F02052304031F080E005C081E003C090
:100BF00082E001C083E0D4DF20E0F8012BBF218335
:100C000026E02083806481836BCE60EB79E2202F25
:100C10002F70220F402F440F00E010E0001F020F42
:100C200043E00E949A87060F171F0895E8EC1CD036
:100C30000F7D008300810F7D008338D102E0059392
:100C40003283338300E2069300E4069339D106939E
:100C500000E4069333DD348735873687378732875C
:100C6000338732AB0895E0ECF4E002DD00810895B3
:100C700084D0002331F0033011F0043009F423D183
:100C80007BD00091B2291091B329083050E0104078
:100C900029F548E022EC39E28D01ECDAE8ECE4DFFA
:100CA000006200830081006200838ADD002311F46A
:100CB000E7D014C090E099BF0C9182DC07FF05C01B
:100CC0000ED002E002AB13D009C00ED0012B11F4FC
:100CD000E3D004C004D001E002ABEED0BECD92A7B9
:100CE00093A794A795A7089506811781089545D0E5
:100CF000033011F440D03EC09FD082859385801B85
:100D0000910B282F292BB1F486D0EEDF42A50417D2
:100D1000150719F003A9002311F0CBD02BC084D004
:100D200089F087D079F000E0FD010BBF04A705A78B
:100D300082859385803400E0900720F080E490E085
:100D400003AB03C001E0009353218093BA29909331
:100D5000BB29FD018DDC0085118544A555A5040F37
:100D6000151F0093BC291093BD2904A515A54ED0CD
:100D70009DD0A3D072CDA7D059CF6FDC0091522166
:100D80000895FBDF043011F4F6DF3FC08091B229F3
:100D90009091B329FD016CDC04A415A44285538510
:100DA0008001080F191F4017510718F4CA01801954
:100DB0009109AC0122EC39E200851185000D111D6D
:100DC00059DA3AD023D004A58034904031F427D0AA
:100DD000668177814617570740F00287138724D032
:100DE00011F027D059F058D010C0428553854017D4
:100DF000510751F419D011F01CD011F441D005C0A5
:100E00001BD009D034A735A757D027CD080F191FFD
:100E100004A715A7089503D042A753A7089542A594
:100E200053A5400F511F08950685178500301307FD
:100E30000895F80109954FCB1ADC04A515A508956E
:100E40000091CC0401FD0AC00AD041F40091522166
:100E5000013009F421C0043009F415D0089557D0A9
:100E60003ACB0091CC0401FD0AC0F9DF41F40091B6
:100E70005221023009F41DC0033009F404D0089552
:100E800005E000935221E9EBF9E204E00593E1EB80
:100E9000F9E204E00593089503E00093522100E095
:100EA0000093BA290093BB2901D007C0E8EBF9E20F
:100EB000089504E00093522103D002E006930895C0
:100EC000E0EBF9E20895E0912C21F0912D2100E072
:100ED000E030F00709F009950895EBECC5DE02FF5C
:100EE00008C0F093CA040091B82906FF0BC0A8DF20
:100EF00009C0008101FF07C002E006D00091B029BF
:100F000006FDAFDF12CB5ACC0093CA040895ECEC77
:100F1000ABDE00FF53CC01E00083D2DF00E8069394
:100F2000C5DF00E8069301E0EFDFCADF00E10693CA
:100F30009FDEFBCA4A951AF0000F111FFBCF0895E0
:100F4000E2080000202100000000A900000072203B
:100F500000540F01040000000001000D8112810007
:100F60000800001B811F810300000036810000047F
:100F70000000003C8100000000000000000000753F
:100F8000207D209520952085208D209520952095E9
:100F900020952095209520952095209520952095A9
:100FA000200009021200010100C032090400000003
:100FB000FF0000001201000200000040EB03E82FD8
:100FC0000400000200010003000000000000000017
:100FD0000000000000000000000000000000000011
:100FE0000000000000000000444655204154584DC8
:0D0FF00045474136344131550004030904E2
:0400000310000000E9
:00000001FF
